:020000003B2A99
:06000600000000000800EC
:0E000C00213083120313FD00FD0B0A280800AB
:10001A000F3083120313FC004730FD00FD0B132839
:0A002A00FC0B132800000000080082
:10003400063083120313FD00FD0B1E280000080088
:1000440083160313A601A801A9011030AA000430E5
:10005400290203185728F030831288008030F000FA
:100064007008083E840083162A09F0007008800096
:10007400032003200F3083120805F0007008831654
:10008400A7007008031951282808A6002708031997
:100094004F28A70CA713A60A48280430A900AA0DC4
:1000A4002A100430A807A90A29282608F000080005
:1000B40083160313A61B61288312861163288312F7
:1000C40086158316261B6928831206116B28831252
:1000D40006158316A61A71288312861073288312B4
:1000E40086148316261A7928831206107B28831215
:1000F40006146C187F28061680280612861603201C
:1001040086128316A6198928831286118B288312D6
:1001140086158316261991288312061193288312B3
:1001240006158316A6189928831286109B28831215
:10013400861483162618A12883120610A328831276
:1001440006146C18A7280616A8280612861603207B
:0E01540086126C1CAF280D20B0280620080073
:10016200831203136C106F088316A6005A206C14B6
:02017200080083
:0E017400831203135C088A005B0882000800F7
:10018200222070088312EF000F300805F0000319D7
:0C019200CC281A20C5286F08F0000800D7
:10019E00E128803083160313A300F428C030A30097
:1001AE00F4289430A300F428D430A300F42880302F
:1001BE00A300F428831603132308013A0319D02849
:1001CE002308023A0319D5282308033A0319D8281D
:1001DE002308043A0319DB28DE282403F000230841
:1001EE00F0077008A30083126C1470088316A60023
:1001FE005A206C1083162508A6005A206C1408008D
:10020E001929803083160313A0002C29C030A000BA
:10021E002C299430A0002C29D430A0002C29803019
:10022E00A0002C29831603132008013A031908296C
:10023E002008023A03190D292008033A0319102940
:10024E002008043A0319132916292103F000200867
:10025E00F0077008A0007008A6005A206C10EE017E
:10026E006E08831622078400000803194929831299
:10027E006E0883162207840000088312EF00B12057
:0A028E00EE0A372983126C140800F1
:10029800831603138612061206108610061186119D
:1002A80083128612061286110611861006100D207A
:1002B8000D200D20861406148616032086120D20A4
:1002C8008616032086120D208616032086120D201E
:1002D80006108616032086120D2086160320861225
:1002E800861086158616032086120D2086110614A0
:1002F80086160320861206108616032086120D2005
:1003080086160320861206148616032086120D20F0
:1003180006108616032086128615061586140614FE
:0C0328008616032086120D206C140800BD
:1003340083120313DA01C1207008DA00700803196C
:100344009D29D4293130DA00142A3230DA00142AF3
:100354003330DA00142A4130DA00142A3430DA0057
:10036400142A3530DA00142A3630DA00142A4230DE
:10037400DA00142A3730DA00142A3830DA00142A62
:100384003930DA00142A4330DA00142A2A30DA0029
:10039400142A3030DA00142A2330DA00142A4430C4
:1003A400DA00142A5A08013A0319A4295A08023A0D
:1003B4000319A7295A08033A0319AA295A08043A1F
:1003C4000319AD295A08053A0319B0295A08063AFF
:1003D4000319B3295A08073A0319B6295A08083ADF
:1003E4000319B9295A08093A0319BC295A080A3ABF
:1003F4000319BF295A080B3A0319C2295A080C3A9F
:100404000319C5295A080D3A0319C8295A080E3A7E
:100414000319CB295A080F3A0319CE295A08103A5E
:100424000319D1296D085D3E84005A08800002300A
:100434008316A30083126D0A8316A4002A30A50034
:06044400CF20ED0A0800C4
:10044A00803083120313F0007008083E8400FF30E6
:04045A008000080016
:10045E00BA208A110A128000840ADB0A0319DC0A08
:08046E00F003031D2F2A080012
:1004760016238316031788018901831287138813AD
:100486008316031309108312091025224C2101300B
:100496008316A6005A200C308316A6005A20013077
:1004A6008316A0000130A1004A30A20007211030B7
:1004B600FB003930FC000D30FD00FD0B602AFC0B03
:1004C600602AFB0B602A0000000001308316A6009C
:1004D6005A2001308316A0000130A1002430A2006A
:1004E6000721ED019A210230FB000430FC00BA30EE
:1004F600FD00FD0B7C2AFC0B7C2AFB0B7C2A0000F2
:1005060005306D02031C752A5D082006031DCF2ADF
:100516005E082106031DCF2A5F082206031DCF2A87
:1005260060082306031DCF2A6108233A031DCF2A3C
:1005360001308316A6005A2001308316A00004302D
:10054600A1003430A200072109141530FB004B30FE
:10055600FC00BE30FD00FD0BAE2AFC0BAE2AFB0BE9
:10056600AE2A0000091001308316A6005A20013079
:100576008316A0000430A1003E30A20007211530EA
:10058600FB004B30FC00BE30FD00FD0BC82AFC0B07
:10059600C82AFB0BC82A0000DD01DE01DF01E001ED
:0605A600E101682AD52ADC
:10062C00203084003A3083120313F000DB30DB00FF
:08063C000230DC002F2208004F
:0805B6003134343432343534A1
:1005BE0045346E34743465347234203450346134BE
:1005CE007334733477346F34723464343A340034A1
:1005DE0044346F346F34723420344F347034653495
:0405EE006E34003433
:1005F20044346F346F347234203443346C346F3487
:080602007334653464340034E4
:10060A0045346C3465346334343430343234203411
:10061A004B34653479344C346F3463346B3400347E
:04400E00F22F000786
:00000001FF
